S01D0000426C696E6B204C656420576974682054696D6572732E7372656392
S11300000C942A000C943C000C943C000C943C008E
S11300100C943C000C943C000C943C000C943C006C
S11300200C943C000C943C000C943C000C94A800F0
S11300300C943C000C943C000C943C000C943C004C
S11300400C943C000C943C000C943C000C943C003C
S11300500C943C0011241FBECFE5D8E0DEBFCDBF19
S113006020E0A0E6B0E001C01D92A436B207E1F79B
S11300700E9493000C9428030C9400008A3080F4AE
S1130080EBE3F0E0E81BF109683050F481E090E024
S113009002C0880F991F6A95E2F79081892B8083AB
S11300A008958A3008F52AE330E0F901E81BF109E4
S11300B06830D0F4413059F481E090E002C0880FF8
S11300C0991F6A95E2F79081892B808308954111E5
S11300D00BC081E090E002C0880F991F6A95E2F797
S11300E0809590818923808308958A3088F4EBE396
S11300F0F0E0E81BF109683058F481E090E002C0B8
S1130100880F991F6A95E2F78095908189238083EF
S1130110089541E00E94510008950E943E00089510
S11301200E947500089564E083E00E94890064E001
S113013083E00E948D008CE291E00E94080164E05B
S113014083E00E94900084EF91E00E940801EFCFC9
S11301501F920F920FB60F9211248F939F93AF9318
S1130160BF938091600090916100A0916200B09172
S113017063000196A11DB11D8093600090936100FE
S1130180A0936200B0936300BF91AF919F918F9150
S11301900F900FBE0F901F90189589B7816089BF8B
S11301A08FB780688FBF08958130910521F483B79C
S11301B0816083BF08958830910521F483B78260FC
S11301C083BF08958032910521F483B7836083BF90
S11301D008958034910521F483B7846083BF089522
S11301E08038910521F483B7856083BF0895811514
S11301F021E0920721F483B7866083BF08958115B7
S1130200944019F483B7876083BF089513BE08959B
S1130210CF92DF92EF92FF92CF93DF9300D000D082
S113022000D0CDB7DEB7BC0180E090E00E94800230
S11302302FE632E143E85AE30E94DF016B017C01BF
S113024020E030E04FE753E40E94DF010E945102B6
S113025069837A838B839C8329813A814B815C8176
S1130260AFEFB0E00E940E030E9480029B01AC013C
S1130270C701B6010E9472010E9451027E836D8300
S11302800E94CD0088E090E00E94D400409160007C
S113029050916100609162007091630089819A813C
S11302A0AB81BC81481759076A077B0778F38D81B6
S11302B09E81809582BF0E94060110926000109278
S11302C06100109262001092630026960FB6F894B3
S11302D0DEBF0FBECDBFDF91CF91FF90EF90DF90D7
S11302E0CF9008955058BB27AA270E948A010C94E6
S11302F0D4020E94C60238F00E94CD0220F039F4E4
S11303009F3F19F426F40C94C3020EF4E095E7FB26
S11303100C94BD02E92F0E94E50258F3BA17620754
S113032073078407950720F079F4A6F50C94070366
S11303300EF4E0950B2EBA2FA02D0B01B9019001FC
S11303400C01CA01A0011124FF27591B99F0593F40
S113035050F4503E68F11A16F040A22F232F342F88
S11303604427585FF3CF469537952795A795F040D6
S11303705395C9F77EF41F16BA0B620B730B840BEB
S1130380BAF09150A1F0FF0FBB1F661F771F881FA3
S1130390C2F70EC0BA0F621F731F841F48F48795FB
S11303A077956795B795F7959E3F08F0B0CF9395ED
S11303B0880F08F09927EE0F9795879508950E9466
S11303C0F3010C94D4020E94CD0258F00E94C6029C
S11303D040F029F45F3F29F00C94BD0251110C94B4
S11303E008030C94C3020E94E50268F39923B1F355
S11303F0552391F3951B550BBB27AA276217730747
S1130400840738F09F5F5F4F220F331F441FAA1FDA
S1130410A9F335D00E2E3AF0E0E832D09150504096
S1130420E695001CCAF72BD0FE2F29D0660F771F44
S1130430881FBB1F261737074807AB07B0E809F02A
S1130440BB0B802DBF01FF2793585F4F3AF09E3FAF
S1130450510578F00C94BD020C9408035F3FE4F35B
S1130460983ED4F3869577956795B795F7959F5FF2
S1130470C9F7880F911D9695879597F90895E1E03E
S1130480660F771F881FBB1F621773078407BA079D
S113049020F0621B730B840BBA0BEE1F88F7E095F8
S11304A008950E94ED0288F09F5798F0B92F99277C
S11304B0B751B0F0E1F0660F771F881F991F1AF04B
S11304C0BA95C9F714C0B13091F00E940703B1E0A6
S11304D008950C940703672F782F8827B85F39F0A5
S11304E0B93FCCF3869577956795B395D9F73EF4E4
S11304F090958095709561957F4F8F4F9F4F08958C
S1130500E89409C097FB3EF49095809570956195A9
S11305107F4F8F4F9F4F9923A9F0F92F96E9BB275F
S11305209395F695879577956795B795F111F8CFDB
S1130530FAF4BB0F11F460FF1BC06F5F7F4F8F4F46
S11305409F4F16C0882311F096E911C0772321F03C
S11305509EE8872F762F05C0662371F096E8862FD4
S113056070E060E02AF09A95660F771F881FDAF72B
S1130570880F9695879597F9089597F99F6780E86E
S113058070E060E008959FEF80EC089500240A94E1
S11305901616170618060906089500240A9412165A
S11305A01306140605060895092E0394000C11F48D
S11305B0882352F0BB0F40F4BF2B11F460FF04C03A
S11305C06F5F7F4F8F4F9F4F089557FD9058440F93
S11305D0551F59F05F3F71F04795880F97FB991F9E
S11305E061F09F3F79F0879508951216130614065B
S11305F0551FF2CF4695F1DF08C0161617061806E8
S1130600991FF1CF86957105610508940895E894C2
S1130610BB2766277727CB0197F908950E94190312
S1130620A59F900DB49F900DA49F800D911D112442
S11306300895A29FB001B39FC001A39F700D811DB7
S11306401124911DB29F700D811D1124911D0895D7
S1070650F894FFCF48
S9030000FC
